{
  "contractName": "FreshToken",
  "abi": [
    {
      "inputs": [],
      "stateMutability": "nonpayable",
      "type": "constructor"
    },
    {
      "anonymous": false,
      "inputs": [
        {
          "indexed": true,
          "internalType": "address",
          "name": "owner",
          "type": "address"
        },
        {
          "indexed": true,
          "internalType": "address",
          "name": "spender",
          "type": "address"
        },
        {
          "indexed": false,
          "internalType": "uint256",
          "name": "value",
          "type": "uint256"
        }
      ],
      "name": "Approval",
      "type": "event"
    },
    {
      "anonymous": false,
      "inputs": [
        {
          "indexed": true,
          "internalType": "address",
          "name": "from",
          "type": "address"
        },
        {
          "indexed": true,
          "internalType": "address",
          "name": "to",
          "type": "address"
        },
        {
          "indexed": false,
          "internalType": "uint256",
          "name": "value",
          "type": "uint256"
        }
      ],
      "name": "Transfer",
      "type": "event"
    },
    {
      "inputs": [
        {
          "internalType": "address",
          "name": "owner",
          "type": "address"
        },
        {
          "internalType": "address",
          "name": "spender",
          "type": "address"
        }
      ],
      "name": "allowance",
      "outputs": [
        {
          "internalType": "uint256",
          "name": "",
          "type": "uint256"
        }
      ],
      "stateMutability": "view",
      "type": "function",
      "constant": true
    },
    {
      "inputs": [
        {
          "internalType": "address",
          "name": "spender",
          "type": "address"
        },
        {
          "internalType": "uint256",
          "name": "amount",
          "type": "uint256"
        }
      ],
      "name": "approve",
      "outputs": [
        {
          "internalType": "bool",
          "name": "",
          "type": "bool"
        }
      ],
      "stateMutability": "nonpayable",
      "type": "function"
    },
    {
      "inputs": [
        {
          "internalType": "address",
          "name": "account",
          "type": "address"
        }
      ],
      "name": "balanceOf",
      "outputs": [
        {
          "internalType": "uint256",
          "name": "",
          "type": "uint256"
        }
      ],
      "stateMutability": "view",
      "type": "function",
      "constant": true
    },
    {
      "inputs": [],
      "name": "decimals",
      "outputs": [
        {
          "internalType": "uint8",
          "name": "",
          "type": "uint8"
        }
      ],
      "stateMutability": "view",
      "type": "function",
      "constant": true
    },
    {
      "inputs": [
        {
          "internalType": "address",
          "name": "spender",
          "type": "address"
        },
        {
          "internalType": "uint256",
          "name": "subtractedValue",
          "type": "uint256"
        }
      ],
      "name": "decreaseAllowance",
      "outputs": [
        {
          "internalType": "bool",
          "name": "",
          "type": "bool"
        }
      ],
      "stateMutability": "nonpayable",
      "type": "function"
    },
    {
      "inputs": [
        {
          "internalType": "address",
          "name": "spender",
          "type": "address"
        },
        {
          "internalType": "uint256",
          "name": "addedValue",
          "type": "uint256"
        }
      ],
      "name": "increaseAllowance",
      "outputs": [
        {
          "internalType": "bool",
          "name": "",
          "type": "bool"
        }
      ],
      "stateMutability": "nonpayable",
      "type": "function"
    },
    {
      "inputs": [],
      "name": "name",
      "outputs": [
        {
          "internalType": "string",
          "name": "",
          "type": "string"
        }
      ],
      "stateMutability": "view",
      "type": "function",
      "constant": true
    },
    {
      "inputs": [],
      "name": "symbol",
      "outputs": [
        {
          "internalType": "string",
          "name": "",
          "type": "string"
        }
      ],
      "stateMutability": "view",
      "type": "function",
      "constant": true
    },
    {
      "inputs": [],
      "name": "totalSupply",
      "outputs": [
        {
          "internalType": "uint256",
          "name": "",
          "type": "uint256"
        }
      ],
      "stateMutability": "view",
      "type": "function",
      "constant": true
    },
    {
      "inputs": [
        {
          "internalType": "address",
          "name": "to",
          "type": "address"
        },
        {
          "internalType": "uint256",
          "name": "amount",
          "type": "uint256"
        }
      ],
      "name": "transfer",
      "outputs": [
        {
          "internalType": "bool",
          "name": "",
          "type": "bool"
        }
      ],
      "stateMutability": "nonpayable",
      "type": "function"
    },
    {
      "inputs": [
        {
          "internalType": "address",
          "name": "from",
          "type": "address"
        },
        {
          "internalType": "address",
          "name": "to",
          "type": "address"
        },
        {
          "internalType": "uint256",
          "name": "amount",
          "type": "uint256"
        }
      ],
      "name": "transferFrom",
      "outputs": [
        {
          "internalType": "bool",
          "name": "",
          "type": "bool"
        }
      ],
      "stateMutability": "nonpayable",
      "type": "function"
    },
    {
      "inputs": [
        {
          "internalType": "address",
          "name": "_admin",
          "type": "address"
        }
      ],
      "name": "mintToken",
      "outputs": [],
      "stateMutability": "nonpayable",
      "type": "function"
    }
  ],
  "bytecode": "0x60806040523480156200001157600080fd5b506040518060400160405280600b81526020017f467265736820546f6b656e0000000000000000000000000000000000000000008152506040518060400160405280600481526020017f4652544b00000000000000000000000000000000000000000000000000000000815250816003908051906020019062000096929190620000b8565b508060049080519060200190620000af929190620000b8565b505050620001cd565b828054620000c69062000197565b90600052602060002090601f016020900481019282620000ea576000855562000136565b82601f106200010557805160ff191683800117855562000136565b8280016001018555821562000136579182015b828111156200013557825182559160200191906001019062000118565b5b50905062000145919062000149565b5090565b5b80821115620001645760008160009055506001016200014a565b5090565b7f4e487b7100000000000000000000000000000000000000000000000000000000600052602260045260246000fd5b60006002820490506001821680620001b057607f821691505b60208210811415620001c757620001c662000168565b5b50919050565b61174880620001dd6000396000f3fe608060405234801561001057600080fd5b50600436106100b45760003560e01c80633950935111610071578063395093511461018f57806370a08231146101bf57806395d89b41146101ef578063a457c2d71461020d578063a9059cbb1461023d578063dd62ed3e1461026d576100b4565b806301173a74146100b957806306fdde03146100d5578063095ea7b3146100f357806318160ddd1461012357806323b872dd14610141578063313ce56714610171575b600080fd5b6100d360048036038101906100ce9190610d88565b61029d565b005b6100dd6102cc565b6040516100ea9190610e4e565b60405180910390f35b61010d60048036038101906101089190610ea6565b61035e565b60405161011a9190610f01565b60405180910390f35b61012b610381565b6040516101389190610f2b565b60405180910390f35b61015b60048036038101906101569190610f46565b61038b565b6040516101689190610f01565b60405180910390f35b6101796103ba565b6040516101869190610fb5565b60405180910390f35b6101a960048036038101906101a49190610ea6565b6103c3565b6040516101b69190610f01565b60405180910390f35b6101d960048036038101906101d49190610d88565b61046d565b6040516101e69190610f2b565b60405180910390f35b6101f76104b5565b6040516102049190610e4e565b60405180910390f35b61022760048036038101906102229190610ea6565b610547565b6040516102349190610f01565b60405180910390f35b61025760048036038101906102529190610ea6565b610631565b6040516102649190610f01565b60405180910390f35b61028760048036038101906102829190610fd0565b610654565b6040516102949190610f2b565b60405180910390f35b6102c9816102a96103ba565b600a6102b59190611172565b6305f5e1006102c491906111bd565b6106db565b50565b6060600380546102db90611246565b80601f016020809104026020016040519081016040528092919081815260200182805461030790611246565b80156103545780601f1061032957610100808354040283529160200191610354565b820191906000526020600020905b81548152906001019060200180831161033757829003601f168201915b5050505050905090565b60008061036961083b565b9050610376818585610843565b600191505092915050565b6000600254905090565b60008061039661083b565b90506103a3858285610a0e565b6103ae858585610a9a565b60019150509392505050565b60006012905090565b6000806103ce61083b565b9050610462818585600160008673ffffffffffffffffffffffffffffffffffffffff1673ffffffffffffffffffffffffffffffffffffffff16815260200190815260200160002060008973ffffffffffffffffffffffffffffffffffffffff1673ffffffffffffffffffffffffffffffffffffffff1681526020019081526020016000205461045d9190611278565b610843565b600191505092915050565b60008060008373ffffffffffffffffffffffffffffffffffffffff1673ffffffffffffffffffffffffffffffffffffffff168152602001908152602001600020549050919050565b6060600480546104c490611246565b80601f01602080910402602001604051908101604052809291908181526020018280546104f090611246565b801561053d5780601f106105125761010080835404028352916020019161053d565b820191906000526020600020905b81548152906001019060200180831161052057829003601f168201915b5050505050905090565b60008061055261083b565b90506000600160008373ffffffffffffffffffffffffffffffffffffffff1673ffffffffffffffffffffffffffffffffffffffff16815260200190815260200160002060008673ffffffffffffffffffffffffffffffffffffffff1673ffffffffffffffffffffffffffffffffffffffff16815260200190815260200160002054905083811015610618576040517f08c379a000000000000000000000000000000000000000000000000000000000815260040161060f90611340565b60405180910390fd5b6106258286868403610843565b60019250505092915050565b60008061063c61083b565b9050610649818585610a9a565b600191505092915050565b6000600160008473ffffffffffffffffffffffffffffffffffffffff1673ffffffffffffffffffffffffffffffffffffffff16815260200190815260200160002060008373ffffffffffffffffffffffffffffffffffffffff1673ffffffffffffffffffffffffffffffffffffffff16815260200190815260200160002054905092915050565b600073ffffffffffffffffffffffffffffffffffffffff168273ffffffffffffffffffffffffffffffffffffffff16141561074b576040517f08c379a0000000000000000000000000000000000000000000000000000000008152600401610742906113ac565b60405180910390fd5b61075760008383610d1b565b80600260008282546107699190611278565b92505081905550806000808473ffffffffffffffffffffffffffffffffffffffff1673ffffffffffffffffffffffffffffffffffffffff16815260200190815260200160002060008282546107be9190611278565b925050819055508173ffffffffffffffffffffffffffffffffffffffff16600073ffffffffffffffffffffffffffffffffffffffff167fddf252ad1be2c89b69c2b068fc378daa952ba7f163c4a11628f55a4df523b3ef836040516108239190610f2b565b60405180910390a361083760008383610d20565b5050565b600033905090565b600073ffffffffffffffffffffffffffffffffffffffff168373ffffffffffffffffffffffffffffffffffffffff1614156108b3576040517f08c379a00000000000000000000000000000000000000000000000000000000081526004016108aa9061143e565b60405180910390fd5b600073ffffffffffffffffffffffffffffffffffffffff168273ffffffffffffffffffffffffffffffffffffffff161415610923576040517f08c379a000000000000000000000000000000000000000000000000000000000815260040161091a906114d0565b60405180910390fd5b80600160008573ffffffffffffffffffffffffffffffffffffffff1673ffffffffffffffffffffffffffffffffffffffff16815260200190815260200160002060008473ffffffffffffffffffffffffffffffffffffffff1673ffffffffffffffffffffffffffffffffffffffff168152602001908152602001600020819055508173ffffffffffffffffffffffffffffffffffffffff168373ffffffffffffffffffffffffffffffffffffffff167f8c5be1e5ebec7d5bd14f71427d1e84f3dd0314c0f7b2291e5b200ac8c7c3b92583604051610a019190610f2b565b60405180910390a3505050565b6000610a1a8484610654565b90507fffffffffffffffffffffffffffffffffffffffffffffffffffffffffffffffff8114610a945781811015610a86576040517f08c379a0000000000000000000000000000000000000000000000000000000008152600401610a7d9061153c565b60405180910390fd5b610a938484848403610843565b5b50505050565b600073ffffffffffffffffffffffffffffffffffffffff168373ffffffffffffffffffffffffffffffffffffffff161415610b0a576040517f08c379a0000000000000000000000000000000000000000000000000000000008152600401610b01906115ce565b60405180910390fd5b600073ffffffffffffffffffffffffffffffffffffffff168273ffffffffffffffffffffffffffffffffffffffff161415610b7a576040517f08c379a0000000000000000000000000000000000000000000000000000000008152600401610b7190611660565b60405180910390fd5b610b85838383610d1b565b60008060008573ffffffffffffffffffffffffffffffffffffffff1673ffffffffffffffffffffffffffffffffffffffff16815260200190815260200160002054905081811015610c0b576040517f08c379a0000000000000000000000000000000000000000000000000000000008152600401610c02906116f2565b60405180910390fd5b8181036000808673ffffffffffffffffffffffffffffffffffffffff1673ffffffffffffffffffffffffffffffffffffffff16815260200190815260200160002081905550816000808573ffffffffffffffffffffffffffffffffffffffff1673ffffffffffffffffffffffffffffffffffffffff1681526020019081526020016000206000828254610c9e9190611278565b925050819055508273ffffffffffffffffffffffffffffffffffffffff168473ffffffffffffffffffffffffffffffffffffffff167fddf252ad1be2c89b69c2b068fc378daa952ba7f163c4a11628f55a4df523b3ef84604051610d029190610f2b565b60405180910390a3610d15848484610d20565b50505050565b505050565b505050565b600080fd5b600073ffffffffffffffffffffffffffffffffffffffff82169050919050565b6000610d5582610d2a565b9050919050565b610d6581610d4a565b8114610d7057600080fd5b50565b600081359050610d8281610d5c565b92915050565b600060208284031215610d9e57610d9d610d25565b5b6000610dac84828501610d73565b91505092915050565b600081519050919050565b600082825260208201905092915050565b60005b83811015610def578082015181840152602081019050610dd4565b83811115610dfe576000848401525b50505050565b6000601f19601f8301169050919050565b6000610e2082610db5565b610e2a8185610dc0565b9350610e3a818560208601610dd1565b610e4381610e04565b840191505092915050565b60006020820190508181036000830152610e688184610e15565b905092915050565b6000819050919050565b610e8381610e70565b8114610e8e57600080fd5b50565b600081359050610ea081610e7a565b92915050565b60008060408385031215610ebd57610ebc610d25565b5b6000610ecb85828601610d73565b9250506020610edc85828601610e91565b9150509250929050565b60008115159050919050565b610efb81610ee6565b82525050565b6000602082019050610f166000830184610ef2565b92915050565b610f2581610e70565b82525050565b6000602082019050610f406000830184610f1c565b92915050565b600080600060608486031215610f5f57610f5e610d25565b5b6000610f6d86828701610d73565b9350506020610f7e86828701610d73565b9250506040610f8f86828701610e91565b9150509250925092565b600060ff82169050919050565b610faf81610f99565b82525050565b6000602082019050610fca6000830184610fa6565b92915050565b60008060408385031215610fe757610fe6610d25565b5b6000610ff585828601610d73565b925050602061100685828601610d73565b9150509250929050565b7f4e487b7100000000000000000000000000000000000000000000000000000000600052601160045260246000fd5b60008160011c9050919050565b6000808291508390505b60018511156110965780860481111561107257611071611010565b5b60018516156110815780820291505b808102905061108f8561103f565b9450611056565b94509492505050565b6000826110af576001905061116b565b816110bd576000905061116b565b81600181146110d357600281146110dd5761110c565b600191505061116b565b60ff8411156110ef576110ee611010565b5b8360020a91508482111561110657611105611010565b5b5061116b565b5060208310610133831016604e8410600b84101617156111415782820a90508381111561113c5761113b611010565b5b61116b565b61114e848484600161104c565b9250905081840481111561116557611164611010565b5b81810290505b9392505050565b600061117d82610e70565b915061118883610f99565b92506111b57fffffffffffffffffffffffffffffffffffffffffffffffffffffffffffffffff848461109f565b905092915050565b60006111c882610e70565b91506111d383610e70565b9250817fffffffffffffffffffffffffffffffffffffffffffffffffffffffffffffffff048311821515161561120c5761120b611010565b5b828202905092915050565b7f4e487b7100000000000000000000000000000000000000000000000000000000600052602260045260246000fd5b6000600282049050600182168061125e57607f821691505b6020821081141561127257611271611217565b5b50919050565b600061128382610e70565b915061128e83610e70565b9250827fffffffffffffffffffffffffffffffffffffffffffffffffffffffffffffffff038211156112c3576112c2611010565b5b828201905092915050565b7f45524332303a2064656372656173656420616c6c6f77616e63652062656c6f7760008201527f207a65726f000000000000000000000000000000000000000000000000000000602082015250565b600061132a602583610dc0565b9150611335826112ce565b604082019050919050565b600060208201905081810360008301526113598161131d565b9050919050565b7f45524332303a206d696e7420746f20746865207a65726f206164647265737300600082015250565b6000611396601f83610dc0565b91506113a182611360565b602082019050919050565b600060208201905081810360008301526113c581611389565b9050919050565b7f45524332303a20617070726f76652066726f6d20746865207a65726f2061646460008201527f7265737300000000000000000000000000000000000000000000000000000000602082015250565b6000611428602483610dc0565b9150611433826113cc565b604082019050919050565b600060208201905081810360008301526114578161141b565b9050919050565b7f45524332303a20617070726f766520746f20746865207a65726f20616464726560008201527f7373000000000000000000000000000000000000000000000000000000000000602082015250565b60006114ba602283610dc0565b91506114c58261145e565b604082019050919050565b600060208201905081810360008301526114e9816114ad565b9050919050565b7f45524332303a20696e73756666696369656e7420616c6c6f77616e6365000000600082015250565b6000611526601d83610dc0565b9150611531826114f0565b602082019050919050565b6000602082019050818103600083015261155581611519565b9050919050565b7f45524332303a207472616e736665722066726f6d20746865207a65726f20616460008201527f6472657373000000000000000000000000000000000000000000000000000000602082015250565b60006115b8602583610dc0565b91506115c38261155c565b604082019050919050565b600060208201905081810360008301526115e7816115ab565b9050919050565b7f45524332303a207472616e7366657220746f20746865207a65726f206164647260008201527f6573730000000000000000000000000000000000000000000000000000000000602082015250565b600061164a602383610dc0565b9150611655826115ee565b604082019050919050565b600060208201905081810360008301526116798161163d565b9050919050565b7f45524332303a207472616e7366657220616d6f756e742065786365656473206260008201527f616c616e63650000000000000000000000000000000000000000000000000000602082015250565b60006116dc602683610dc0565b91506116e782611680565b604082019050919050565b6000602082019050818103600083015261170b816116cf565b905091905056fea26469706673582212202b827e97ecc03d70b5c5ec7d4e17d4ab7aed76c9107969e1ab74949d4e0e14b764736f6c634300080c0033",
  "immutableReferences": {},
  "source": "// SPDX-License-Identifier: MIT\r\npragma solidity ^0.8.12;\r\n\r\nimport \"openzeppelin-solidity/contracts/token/ERC20/ERC20.sol\";\r\n\r\ncontract FreshToken is ERC20 {\r\n    constructor() ERC20(\"Fresh Token\", \"FRTK\") {}\r\n\r\n    function mintToken(address _admin) public {\r\n        _mint(_admin, 100000000 * (10**decimals()));\r\n    }\r\n}\r\n\r\ncontract FreshTokenCrowdsale {\r\n    address payable admin;\r\n    FreshToken public token;\r\n    uint256 public tokenPrice;\r\n    uint256 public totalSold;\r\n    uint8 public icoPhase;\r\n\r\n    constructor(FreshToken _tokenAddress) {\r\n        admin = payable(msg.sender);\r\n        token = _tokenAddress;\r\n        _setTokenPrice(2538, 125);\r\n    }\r\n\r\n    receive() external payable {\r\n        buyFreshToken(msg.value);\r\n    }\r\n\r\n    //Buy fresh tokens\r\n    function buyFreshToken(uint256 _amount) public payable {\r\n        require(icoPhase != 0, \"ICO Not Started\");\r\n        require(icoPhase != 3, \"ICO Ended\");\r\n        require(\r\n            _amount < token.balanceOf(address(this)),\r\n            \"This much amount is not available\"\r\n        );\r\n        uint256 total = _amount / tokenPrice;\r\n        token.transfer(msg.sender, total);\r\n        totalSold = total + totalSold;\r\n        if (totalSold == 30000000 * 10**18) {\r\n            _setIcoPhase(2);\r\n        }\r\n    }\r\n\r\n    // token price setting (ref: - https://www.edureka.co/community/22207/how-to-set-token-price-in-solidity)\r\n    function _setTokenPrice(uint256 _ethrate, uint256 _tokenprice) internal {\r\n        tokenPrice = (1 ether * _tokenprice) / _ethrate / 10000;\r\n    }\r\n\r\n    // Set ICO phase\r\n    function _setIcoPhase(uint8 _phase) internal {\r\n        icoPhase = _phase;\r\n        if (icoPhase > 1) {\r\n            _setTokenPrice(2538, 225);\r\n        }\r\n    }\r\n\r\n    // Send token from admin account to smart contract\r\n    function startCrowdsale() public onlyAdmin {\r\n        icoPhase = 1;\r\n        token.mintToken(address(this));\r\n    }\r\n\r\n    // Recieve all ethers present in smart contract\r\n    function endCrowdsale() public payable onlyAdmin {\r\n        icoPhase = 3;\r\n        admin.transfer(msg.value);\r\n    }\r\n\r\n    // function modifier for admin use only\r\n    modifier onlyAdmin() {\r\n        require(msg.sender == admin, \"Only admin can do this\");\r\n        _;\r\n    }\r\n\r\n    // checking token balance of any address\r\n    function totalOf(address _address) public view returns (uint256) {\r\n        return token.balanceOf(_address);\r\n    }\r\n}\r\n",
  "sourcePath": "D:/fresh-ico/contracts/FreshToken.sol",
  "compiler": {
    "name": "solc",
    "version": "0.8.12+commit.f00d7308.Emscripten.clang"
  },
  "schemaVersion": "3.4.1",
  "updatedAt": "2022-03-09T10:59:31.789Z",
  "networkType": "ethereum",
  "devdoc": {
    "kind": "dev",
    "methods": {
      "allowance(address,address)": {
        "details": "See {IERC20-allowance}."
      },
      "approve(address,uint256)": {
        "details": "See {IERC20-approve}. NOTE: If `amount` is the maximum `uint256`, the allowance is not updated on `transferFrom`. This is semantically equivalent to an infinite approval. Requirements: - `spender` cannot be the zero address."
      },
      "balanceOf(address)": {
        "details": "See {IERC20-balanceOf}."
      },
      "decimals()": {
        "details": "Returns the number of decimals used to get its user representation. For example, if `decimals` equals `2`, a balance of `505` tokens should be displayed to a user as `5.05` (`505 / 10 ** 2`). Tokens usually opt for a value of 18, imitating the relationship between Ether and Wei. This is the value {ERC20} uses, unless this function is overridden; NOTE: This information is only used for _display_ purposes: it in no way affects any of the arithmetic of the contract, including {IERC20-balanceOf} and {IERC20-transfer}."
      },
      "decreaseAllowance(address,uint256)": {
        "details": "Atomically decreases the allowance granted to `spender` by the caller. This is an alternative to {approve} that can be used as a mitigation for problems described in {IERC20-approve}. Emits an {Approval} event indicating the updated allowance. Requirements: - `spender` cannot be the zero address. - `spender` must have allowance for the caller of at least `subtractedValue`."
      },
      "increaseAllowance(address,uint256)": {
        "details": "Atomically increases the allowance granted to `spender` by the caller. This is an alternative to {approve} that can be used as a mitigation for problems described in {IERC20-approve}. Emits an {Approval} event indicating the updated allowance. Requirements: - `spender` cannot be the zero address."
      },
      "name()": {
        "details": "Returns the name of the token."
      },
      "symbol()": {
        "details": "Returns the symbol of the token, usually a shorter version of the name."
      },
      "totalSupply()": {
        "details": "See {IERC20-totalSupply}."
      },
      "transfer(address,uint256)": {
        "details": "See {IERC20-transfer}. Requirements: - `to` cannot be the zero address. - the caller must have a balance of at least `amount`."
      },
      "transferFrom(address,address,uint256)": {
        "details": "See {IERC20-transferFrom}. Emits an {Approval} event indicating the updated allowance. This is not required by the EIP. See the note at the beginning of {ERC20}. NOTE: Does not update the allowance if the current allowance is the maximum `uint256`. Requirements: - `from` and `to` cannot be the zero address. - `from` must have a balance of at least `amount`. - the caller must have allowance for ``from``'s tokens of at least `amount`."
      }
    },
    "version": 1
  },
  "userdoc": {
    "kind": "user",
    "methods": {},
    "version": 1
  }
}