{
  "contractName": "FreshTokenCrowdsale",
  "abi": [
    {
      "inputs": [
        {
          "internalType": "contract FreshToken",
          "name": "_tokenAddress",
          "type": "address"
        }
      ],
      "stateMutability": "nonpayable",
      "type": "constructor"
    },
    {
      "inputs": [],
      "name": "icoPhase",
      "outputs": [
        {
          "internalType": "uint8",
          "name": "",
          "type": "uint8"
        }
      ],
      "stateMutability": "view",
      "type": "function",
      "constant": true
    },
    {
      "inputs": [],
      "name": "token",
      "outputs": [
        {
          "internalType": "contract FreshToken",
          "name": "",
          "type": "address"
        }
      ],
      "stateMutability": "view",
      "type": "function",
      "constant": true
    },
    {
      "inputs": [],
      "name": "tokenPrice",
      "outputs": [
        {
          "internalType": "uint256",
          "name": "",
          "type": "uint256"
        }
      ],
      "stateMutability": "view",
      "type": "function",
      "constant": true
    },
    {
      "inputs": [],
      "name": "totalSold",
      "outputs": [
        {
          "internalType": "uint256",
          "name": "",
          "type": "uint256"
        }
      ],
      "stateMutability": "view",
      "type": "function",
      "constant": true
    },
    {
      "stateMutability": "payable",
      "type": "receive",
      "payable": true
    },
    {
      "inputs": [
        {
          "internalType": "uint256",
          "name": "_amount",
          "type": "uint256"
        }
      ],
      "name": "buyFreshToken",
      "outputs": [],
      "stateMutability": "payable",
      "type": "function",
      "payable": true
    },
    {
      "inputs": [],
      "name": "startCrowdsale",
      "outputs": [],
      "stateMutability": "nonpayable",
      "type": "function"
    },
    {
      "inputs": [],
      "name": "endCrowdsale",
      "outputs": [],
      "stateMutability": "payable",
      "type": "function",
      "payable": true
    },
    {
      "inputs": [
        {
          "internalType": "address",
          "name": "_address",
          "type": "address"
        }
      ],
      "name": "totalOf",
      "outputs": [
        {
          "internalType": "uint256",
          "name": "",
          "type": "uint256"
        }
      ],
      "stateMutability": "view",
      "type": "function",
      "constant": true
    }
  ],
  "bytecode": "0x60806040523480156200001157600080fd5b50604051620010d6380380620010d683398181016040528101906200003791906200018e565b336000806101000a81548173ffffffffffffffffffffffffffffffffffffffff021916908373ffffffffffffffffffffffffffffffffffffffff16021790555080600160006101000a81548173ffffffffffffffffffffffffffffffffffffffff021916908373ffffffffffffffffffffffffffffffffffffffff160217905550620000cd6109ea607d620000d460201b60201c565b50620002c1565b6127108282670de0b6b3a7640000620000ee9190620001f9565b620000fa919062000289565b62000106919062000289565b6002819055505050565b600080fd5b600073ffffffffffffffffffffffffffffffffffffffff82169050919050565b6000620001428262000115565b9050919050565b6000620001568262000135565b9050919050565b620001688162000149565b81146200017457600080fd5b50565b60008151905062000188816200015d565b92915050565b600060208284031215620001a757620001a662000110565b5b6000620001b78482850162000177565b91505092915050565b6000819050919050565b7f4e487b7100000000000000000000000000000000000000000000000000000000600052601160045260246000fd5b60006200020682620001c0565b91506200021383620001c0565b9250817fffffffffffffffffffffffffffffffffffffffffffffffffffffffffffffffff04831182151516156200024f576200024e620001ca565b5b828202905092915050565b7f4e487b7100000000000000000000000000000000000000000000000000000000600052601260045260246000fd5b60006200029682620001c0565b9150620002a383620001c0565b925082620002b657620002b56200025a565b5b828204905092915050565b610e0580620002d16000396000f3fe60806040526004361061007f5760003560e01c80639106d7ba1161004e5780639106d7ba14610110578063912c26731461013b578063a39953b214610178578063fc0c546a1461018f5761008f565b80632095f2d4146100945780635233e6321461009e57806368955fb1146100ba5780637ff9b596146100e55761008f565b3661008f5761008d346101ba565b005b600080fd5b61009c61042e565b005b6100b860048036038101906100b3919061081c565b6101ba565b005b3480156100c657600080fd5b506100cf610541565b6040516100dc9190610865565b60405180910390f35b3480156100f157600080fd5b506100fa610554565b604051610107919061088f565b60405180910390f35b34801561011c57600080fd5b5061012561055a565b604051610132919061088f565b60405180910390f35b34801561014757600080fd5b50610162600480360381019061015d9190610908565b610560565b60405161016f919061088f565b60405180910390f35b34801561018457600080fd5b5061018d610605565b005b34801561019b57600080fd5b506101a461073e565b6040516101b19190610994565b60405180910390f35b6000600460009054906101000a900460ff1660ff161415610210576040517f08c379a000000000000000000000000000000000000000000000000000000000815260040161020790610a0c565b60405180910390fd5b6003600460009054906101000a900460ff1660ff161415610266576040517f08c379a000000000000000000000000000000000000000000000000000000000815260040161025d90610a78565b60405180910390fd5b600160009054906101000a900473ffffffffffffffffffffffffffffffffffffffff1673ffffffffffffffffffffffffffffffffffffffff166370a08231306040518263ffffffff1660e01b81526004016102c19190610aa7565b602060405180830381865afa1580156102de573d6000803e3d6000fd5b505050506040513d601f19601f820116820180604052508101906103029190610ad7565b8110610343576040517f08c379a000000000000000000000000000000000000000000000000000000000815260040161033a90610b76565b60405180910390fd5b6000600254826103539190610bf4565b9050600160009054906101000a900473ffffffffffffffffffffffffffffffffffffffff1673ffffffffffffffffffffffffffffffffffffffff1663a9059cbb33836040518363ffffffff1660e01b81526004016103b2929190610c25565b6020604051808303816000875af11580156103d1573d6000803e3d6000fd5b505050506040513d601f19601f820116820180604052508101906103f59190610c86565b50600354816104049190610cb3565b6003819055506a18d0bf423c03d8de000000600354141561042a576104296002610764565b5b5050565b60008054906101000a900473ffffffffffffffffffffffffffffffffffffffff1673ffffffffffffffffffffffffffffffffffffffff163373ffffffffffffffffffffffffffffffffffffffff16146104bc576040517f08c379a00000000000000000000000000000000000000000000000000000000081526004016104b390610d55565b60405180910390fd5b6003600460006101000a81548160ff021916908360ff16021790555060008054906101000a900473ffffffffffffffffffffffffffffffffffffffff1673ffffffffffffffffffffffffffffffffffffffff166108fc349081150290604051600060405180830381858888f1935050505015801561053e573d6000803e3d6000fd5b50565b600460009054906101000a900460ff1681565b60025481565b60035481565b6000600160009054906101000a900473ffffffffffffffffffffffffffffffffffffffff1673ffffffffffffffffffffffffffffffffffffffff166370a08231836040518263ffffffff1660e01b81526004016105bd9190610aa7565b602060405180830381865afa1580156105da573d6000803e3d6000fd5b505050506040513d601f19601f820116820180604052508101906105fe9190610ad7565b9050919050565b60008054906101000a900473ffffffffffffffffffffffffffffffffffffffff1673ffffffffffffffffffffffffffffffffffffffff163373ffffffffffffffffffffffffffffffffffffffff1614610693576040517f08c379a000000000000000000000000000000000000000000000000000000000815260040161068a90610d55565b60405180910390fd5b6001600460006101000a81548160ff021916908360ff160217905550600160009054906101000a900473ffffffffffffffffffffffffffffffffffffffff1673ffffffffffffffffffffffffffffffffffffffff166301173a74306040518263ffffffff1660e01b815260040161070a9190610aa7565b600060405180830381600087803b15801561072457600080fd5b505af1158015610738573d6000803e3d6000fd5b50505050565b600160009054906101000a900473ffffffffffffffffffffffffffffffffffffffff1681565b80600460006101000a81548160ff021916908360ff1602179055506001600460009054906101000a900460ff1660ff1611156107a8576107a76109ea60e16107ab565b5b50565b6127108282670de0b6b3a76400006107c39190610d75565b6107cd9190610bf4565b6107d79190610bf4565b6002819055505050565b600080fd5b6000819050919050565b6107f9816107e6565b811461080457600080fd5b50565b600081359050610816816107f0565b92915050565b600060208284031215610832576108316107e1565b5b600061084084828501610807565b91505092915050565b600060ff82169050919050565b61085f81610849565b82525050565b600060208201905061087a6000830184610856565b92915050565b610889816107e6565b82525050565b60006020820190506108a46000830184610880565b92915050565b600073ffffffffffffffffffffffffffffffffffffffff82169050919050565b60006108d5826108aa565b9050919050565b6108e5816108ca565b81146108f057600080fd5b50565b600081359050610902816108dc565b92915050565b60006020828403121561091e5761091d6107e1565b5b600061092c848285016108f3565b91505092915050565b6000819050919050565b600061095a610955610950846108aa565b610935565b6108aa565b9050919050565b600061096c8261093f565b9050919050565b600061097e82610961565b9050919050565b61098e81610973565b82525050565b60006020820190506109a96000830184610985565b92915050565b600082825260208201905092915050565b7f49434f204e6f7420537461727465640000000000000000000000000000000000600082015250565b60006109f6600f836109af565b9150610a01826109c0565b602082019050919050565b60006020820190508181036000830152610a25816109e9565b9050919050565b7f49434f20456e6465640000000000000000000000000000000000000000000000600082015250565b6000610a626009836109af565b9150610a6d82610a2c565b602082019050919050565b60006020820190508181036000830152610a9181610a55565b9050919050565b610aa1816108ca565b82525050565b6000602082019050610abc6000830184610a98565b92915050565b600081519050610ad1816107f0565b92915050565b600060208284031215610aed57610aec6107e1565b5b6000610afb84828501610ac2565b91505092915050565b7f54686973206d75636820616d6f756e74206973206e6f7420617661696c61626c60008201527f6500000000000000000000000000000000000000000000000000000000000000602082015250565b6000610b606021836109af565b9150610b6b82610b04565b604082019050919050565b60006020820190508181036000830152610b8f81610b53565b9050919050565b7f4e487b7100000000000000000000000000000000000000000000000000000000600052601260045260246000fd5b7f4e487b7100000000000000000000000000000000000000000000000000000000600052601160045260246000fd5b6000610bff826107e6565b9150610c0a836107e6565b925082610c1a57610c19610b96565b5b828204905092915050565b6000604082019050610c3a6000830185610a98565b610c476020830184610880565b9392505050565b60008115159050919050565b610c6381610c4e565b8114610c6e57600080fd5b50565b600081519050610c8081610c5a565b92915050565b600060208284031215610c9c57610c9b6107e1565b5b6000610caa84828501610c71565b91505092915050565b6000610cbe826107e6565b9150610cc9836107e6565b9250827fffffffffffffffffffffffffffffffffffffffffffffffffffffffffffffffff03821115610cfe57610cfd610bc5565b5b828201905092915050565b7f4f6e6c792061646d696e2063616e20646f207468697300000000000000000000600082015250565b6000610d3f6016836109af565b9150610d4a82610d09565b602082019050919050565b60006020820190508181036000830152610d6e81610d32565b9050919050565b6000610d80826107e6565b9150610d8b836107e6565b9250817fffffffffffffffffffffffffffffffffffffffffffffffffffffffffffffffff0483118215151615610dc457610dc3610bc5565b5b82820290509291505056fea2646970667358221220ab9a4172f1da8bf7472c7ffcdf3bf4db3e81331a550c02587e03cb4dcd0771c664736f6c634300080c0033",
  "immutableReferences": {},
  "source": "// SPDX-License-Identifier: MIT\r\npragma solidity ^0.8.12;\r\n\r\nimport \"openzeppelin-solidity/contracts/token/ERC20/ERC20.sol\";\r\n\r\ncontract FreshToken is ERC20 {\r\n    constructor() ERC20(\"Fresh Token\", \"FRTK\") {}\r\n\r\n    function mintToken(address _admin) public {\r\n        _mint(_admin, 100000000 * (10**decimals()));\r\n    }\r\n}\r\n\r\ncontract FreshTokenCrowdsale {\r\n    address payable admin;\r\n    FreshToken public token;\r\n    uint256 public tokenPrice;\r\n    uint256 public totalSold;\r\n    uint8 public icoPhase;\r\n\r\n    constructor(FreshToken _tokenAddress) {\r\n        admin = payable(msg.sender);\r\n        token = _tokenAddress;\r\n        _setTokenPrice(2538, 125);\r\n    }\r\n\r\n    receive() external payable {\r\n        buyFreshToken(msg.value);\r\n    }\r\n\r\n    //Buy fresh tokens\r\n    function buyFreshToken(uint256 _amount) public payable {\r\n        require(icoPhase != 0, \"ICO Not Started\");\r\n        require(icoPhase != 3, \"ICO Ended\");\r\n        require(\r\n            _amount < token.balanceOf(address(this)),\r\n            \"This much amount is not available\"\r\n        );\r\n        uint256 total = _amount / tokenPrice;\r\n        token.transfer(msg.sender, total);\r\n        totalSold = total + totalSold;\r\n        if (totalSold == 30000000 * 10**18) {\r\n            _setIcoPhase(2);\r\n        }\r\n    }\r\n\r\n    // token price setting (ref: - https://www.edureka.co/community/22207/how-to-set-token-price-in-solidity)\r\n    function _setTokenPrice(uint256 _ethrate, uint256 _tokenprice) internal {\r\n        tokenPrice = (1 ether * _tokenprice) / _ethrate / 10000;\r\n    }\r\n\r\n    // Set ICO phase\r\n    function _setIcoPhase(uint8 _phase) internal {\r\n        icoPhase = _phase;\r\n        if (icoPhase > 1) {\r\n            _setTokenPrice(2538, 225);\r\n        }\r\n    }\r\n\r\n    // Send token from admin account to smart contract\r\n    function startCrowdsale() public onlyAdmin {\r\n        icoPhase = 1;\r\n        token.mintToken(address(this));\r\n    }\r\n\r\n    // Recieve all ethers present in smart contract\r\n    function endCrowdsale() public payable onlyAdmin {\r\n        icoPhase = 3;\r\n        admin.transfer(msg.value);\r\n    }\r\n\r\n    // function modifier for admin use only\r\n    modifier onlyAdmin() {\r\n        require(msg.sender == admin, \"Only admin can do this\");\r\n        _;\r\n    }\r\n\r\n    // checking token balance of any address\r\n    function totalOf(address _address) public view returns (uint256) {\r\n        return token.balanceOf(_address);\r\n    }\r\n}\r\n",
  "sourcePath": "D:/fresh-ico/contracts/FreshToken.sol",
  "compiler": {
    "name": "solc",
    "version": "0.8.12+commit.f00d7308.Emscripten.clang"
  },
  "schemaVersion": "3.4.1",
  "updatedAt": "2022-03-09T10:59:31.796Z",
  "networkType": "ethereum",
  "devdoc": {
    "kind": "dev",
    "methods": {},
    "version": 1
  },
  "userdoc": {
    "kind": "user",
    "methods": {},
    "version": 1
  }
}