{
	"data": {
		"bytecode": {
			"linkReferences": {},
			"object": "60806040523480156200001157600080fd5b50604051620010c8380380620010c88339818101604052810190620000379190620001f0565b336000806101000a81548173ffffffffffffffffffffffffffffffffffffffff021916908373ffffffffffffffffffffffffffffffffffffffff16021790555081600160006101000a81548173ffffffffffffffffffffffffffffffffffffffff021916908373ffffffffffffffffffffffffffffffffffffffff1602179055506001600460006101000a81548160ff021916908360ff160217905550620000ed8163ffffffff16607d620000f560201b60201c565b505062000338565b6127108282670de0b6b3a76400006200010f919062000270565b6200011b919062000300565b62000127919062000300565b6002819055505050565b600080fd5b600073ffffffffffffffffffffffffffffffffffffffff82169050919050565b6000620001638262000136565b9050919050565b6000620001778262000156565b9050919050565b62000189816200016a565b81146200019557600080fd5b50565b600081519050620001a9816200017e565b92915050565b600063ffffffff82169050919050565b620001ca81620001af565b8114620001d657600080fd5b50565b600081519050620001ea81620001bf565b92915050565b600080604083850312156200020a576200020962000131565b5b60006200021a8582860162000198565b92505060206200022d85828601620001d9565b9150509250929050565b6000819050919050565b7f4e487b7100000000000000000000000000000000000000000000000000000000600052601160045260246000fd5b60006200027d8262000237565b91506200028a8362000237565b9250817fffffffffffffffffffffffffffffffffffffffffffffffffffffffffffffffff0483118215151615620002c657620002c562000241565b5b828202905092915050565b7f4e487b7100000000000000000000000000000000000000000000000000000000600052601260045260246000fd5b60006200030d8262000237565b91506200031a8362000237565b9250826200032d576200032c620002d1565b5b828204905092915050565b610d8080620003486000396000f3fe60806040526004361061008a5760003560e01c80637ff9b596116100595780637ff9b5961461011b5780639106d7ba14610146578063912c267314610171578063bbc2402d146101ae578063fc0c546a146101d75761009a565b80632095f2d41461009f5780635233e632146100a957806368955fb1146100c55780637e1c0c09146100f05761009a565b3661009a5761009834610202565b005b600080fd5b6100a76103d9565b005b6100c360048036038101906100be91906107cf565b610202565b005b3480156100d157600080fd5b506100da6104ec565b6040516100e79190610818565b60405180910390f35b3480156100fc57600080fd5b506101056104ff565b6040516101129190610842565b60405180910390f35b34801561012757600080fd5b50610130610505565b60405161013d9190610842565b60405180910390f35b34801561015257600080fd5b5061015b61050b565b6040516101689190610842565b60405180910390f35b34801561017d57600080fd5b50610198600480360381019061019391906108bb565b610511565b6040516101a59190610842565b60405180910390f35b3480156101ba57600080fd5b506101d560048036038101906101d091906107cf565b6105b6565b005b3480156101e357600080fd5b506101ec6106f1565b6040516101f99190610947565b60405180910390f35b6000600460009054906101000a900460ff1660ff1614610257576040517f08c379a000000000000000000000000000000000000000000000000000000000815260040161024e906109bf565b60405180910390fd5b60055481101561029c576040517f08c379a000000000000000000000000000000000000000000000000000000000815260040161029390610a51565b60405180910390fd5b6003546005546102ac9190610aa0565b8110156102ee576040517f08c379a00000000000000000000000000000000000000000000000000000000081526004016102e590610a51565b60405180910390fd5b6000600254826102fe9190610b03565b9050600160009054906101000a900473ffffffffffffffffffffffffffffffffffffffff1673ffffffffffffffffffffffffffffffffffffffff1663a9059cbb33836040518363ffffffff1660e01b815260040161035d929190610b43565b6020604051808303816000875af115801561037c573d6000803e3d6000fd5b505050506040513d601f19601f820116820180604052508101906103a09190610ba4565b50600354816103af9190610bd1565b6003819055506a18d0bf423c03d8de00000060035414156103d5576103d46002610717565b5b5050565b60008054906101000a900473ffffffffffffffffffffffffffffffffffffffff1673ffffffffffffffffffffffffffffffffffffffff163373ffffffffffffffffffffffffffffffffffffffff1614610467576040517f08c379a000000000000000000000000000000000000000000000000000000000815260040161045e90610c73565b60405180910390fd5b6000600460006101000a81548160ff021916908360ff16021790555060008054906101000a900473ffffffffffffffffffffffffffffffffffffffff1673ffffffffffffffffffffffffffffffffffffffff166108fc349081150290604051600060405180830381858888f193505050501580156104e9573d6000803e3d6000fd5b50565b600460009054906101000a900460ff1681565b60055481565b60025481565b60035481565b6000600160009054906101000a900473ffffffffffffffffffffffffffffffffffffffff1673ffffffffffffffffffffffffffffffffffffffff166370a08231836040518263ffffffff1660e01b815260040161056e9190610c93565b602060405180830381865afa15801561058b573d6000803e3d6000fd5b505050506040513d601f19601f820116820180604052508101906105af9190610cc3565b9050919050565b60008054906101000a900473ffffffffffffffffffffffffffffffffffffffff1673ffffffffffffffffffffffffffffffffffffffff163373ffffffffffffffffffffffffffffffffffffffff1614610644576040517f08c379a000000000000000000000000000000000000000000000000000000000815260040161063b90610c73565b60405180910390fd5b80600581905550600160009054906101000a900473ffffffffffffffffffffffffffffffffffffffff1673ffffffffffffffffffffffffffffffffffffffff1663a9059cbb306005546040518363ffffffff1660e01b81526004016106aa929190610b43565b6020604051808303816000875af11580156106c9573d6000803e3d6000fd5b505050506040513d601f19601f820116820180604052508101906106ed9190610ba4565b5050565b600160009054906101000a900473ffffffffffffffffffffffffffffffffffffffff1681565b80600460006101000a81548160ff021916908360ff1602179055506001600460009054906101000a900460ff1660ff16111561075b5761075a6109ea60e161075e565b5b50565b6127108282670de0b6b3a76400006107769190610cf0565b6107809190610b03565b61078a9190610b03565b6002819055505050565b600080fd5b6000819050919050565b6107ac81610799565b81146107b757600080fd5b50565b6000813590506107c9816107a3565b92915050565b6000602082840312156107e5576107e4610794565b5b60006107f3848285016107ba565b91505092915050565b600060ff82169050919050565b610812816107fc565b82525050565b600060208201905061082d6000830184610809565b92915050565b61083c81610799565b82525050565b60006020820190506108576000830184610833565b92915050565b600073ffffffffffffffffffffffffffffffffffffffff82169050919050565b60006108888261085d565b9050919050565b6108988161087d565b81146108a357600080fd5b50565b6000813590506108b58161088f565b92915050565b6000602082840312156108d1576108d0610794565b5b60006108df848285016108a6565b91505092915050565b6000819050919050565b600061090d6109086109038461085d565b6108e8565b61085d565b9050919050565b600061091f826108f2565b9050919050565b600061093182610914565b9050919050565b61094181610926565b82525050565b600060208201905061095c6000830184610938565b92915050565b600082825260208201905092915050565b7f49434f20456e6465640000000000000000000000000000000000000000000000600082015250565b60006109a9600983610962565b91506109b482610973565b602082019050919050565b600060208201905081810360008301526109d88161099c565b9050919050565b7f54686973206d75636820616d6f756e74206973206e6f7420617661696c61626c60008201527f6500000000000000000000000000000000000000000000000000000000000000602082015250565b6000610a3b602183610962565b9150610a46826109df565b604082019050919050565b60006020820190508181036000830152610a6a81610a2e565b9050919050565b7f4e487b7100000000000000000000000000000000000000000000000000000000600052601160045260246000fd5b6000610aab82610799565b9150610ab683610799565b925082821015610ac957610ac8610a71565b5b828203905092915050565b7f4e487b7100000000000000000000000000000000000000000000000000000000600052601260045260246000fd5b6000610b0e82610799565b9150610b1983610799565b925082610b2957610b28610ad4565b5b828204905092915050565b610b3d8161087d565b82525050565b6000604082019050610b586000830185610b34565b610b656020830184610833565b9392505050565b60008115159050919050565b610b8181610b6c565b8114610b8c57600080fd5b50565b600081519050610b9e81610b78565b92915050565b600060208284031215610bba57610bb9610794565b5b6000610bc884828501610b8f565b91505092915050565b6000610bdc82610799565b9150610be783610799565b9250827fffffffffffffffffffffffffffffffffffffffffffffffffffffffffffffffff03821115610c1c57610c1b610a71565b5b828201905092915050565b7f4f6e6c792061646d696e2063616e20646f207468697300000000000000000000600082015250565b6000610c5d601683610962565b9150610c6882610c27565b602082019050919050565b60006020820190508181036000830152610c8c81610c50565b9050919050565b6000602082019050610ca86000830184610b34565b92915050565b600081519050610cbd816107a3565b92915050565b600060208284031215610cd957610cd8610794565b5b6000610ce784828501610cae565b91505092915050565b6000610cfb82610799565b9150610d0683610799565b9250817fffffffffffffffffffffffffffffffffffffffffffffffffffffffffffffffff0483118215151615610d3f57610d3e610a71565b5b82820290509291505056fea2646970667358221220f37b73a281a2142c4fb69ed0f9965b7a395361a5bcebdad83affda7e4ef90ec564736f6c634300080c0033",
			"opcodes": "PUSH1 0x80 PUSH1 0x40 MSTORE CALLVALUE DUP1 ISZERO PUSH3 0x11 JUMPI PUSH1 0x0 DUP1 REVERT JUMPDEST POP PUSH1 0x40 MLOAD PUSH3 0x10C8 CODESIZE SUB DUP1 PUSH3 0x10C8 DUP4 CODECOPY DUP2 DUP2 ADD PUSH1 0x40 MSTORE DUP2 ADD SWAP1 PUSH3 0x37 SWAP2 SWAP1 PUSH3 0x1F0 JUMP JUMPDEST CALLER PUSH1 0x0 DUP1 PUSH2 0x100 EXP DUP2 SLOAD DUP2 PUSH20 0xFFFFFFFFFFFFFFFFFFFFFFFFFFFFFFFFFFFFFFFF MUL NOT AND SWAP1 DUP4 PUSH20 0xFFFFFFFFFFFFFFFFFFFFFFFFFFFFFFFFFFFFFFFF AND MUL OR SWAP1 SSTORE POP DUP2 PUSH1 0x1 PUSH1 0x0 PUSH2 0x100 EXP DUP2 SLOAD DUP2 PUSH20 0xFFFFFFFFFFFFFFFFFFFFFFFFFFFFFFFFFFFFFFFF MUL NOT AND SWAP1 DUP4 PUSH20 0xFFFFFFFFFFFFFFFFFFFFFFFFFFFFFFFFFFFFFFFF AND MUL OR SWAP1 SSTORE POP PUSH1 0x1 PUSH1 0x4 PUSH1 0x0 PUSH2 0x100 EXP DUP2 SLOAD DUP2 PUSH1 0xFF MUL NOT AND SWAP1 DUP4 PUSH1 0xFF AND MUL OR SWAP1 SSTORE POP PUSH3 0xED DUP2 PUSH4 0xFFFFFFFF AND PUSH1 0x7D PUSH3 0xF5 PUSH1 0x20 SHL PUSH1 0x20 SHR JUMP JUMPDEST POP POP PUSH3 0x338 JUMP JUMPDEST PUSH2 0x2710 DUP3 DUP3 PUSH8 0xDE0B6B3A7640000 PUSH3 0x10F SWAP2 SWAP1 PUSH3 0x270 JUMP JUMPDEST PUSH3 0x11B SWAP2 SWAP1 PUSH3 0x300 JUMP JUMPDEST PUSH3 0x127 SWAP2 SWAP1 PUSH3 0x300 JUMP JUMPDEST PUSH1 0x2 DUP2 SWAP1 SSTORE POP POP POP JUMP JUMPDEST PUSH1 0x0 DUP1 REVERT JUMPDEST PUSH1 0x0 PUSH20 0xFFFFFFFFFFFFFFFFFFFFFFFFFFFFFFFFFFFFFFFF DUP3 AND SWAP1 POP SWAP2 SWAP1 POP JUMP JUMPDEST PUSH1 0x0 PUSH3 0x163 DUP3 PUSH3 0x136 JUMP JUMPDEST SWAP1 POP SWAP2 SWAP1 POP JUMP JUMPDEST PUSH1 0x0 PUSH3 0x177 DUP3 PUSH3 0x156 JUMP JUMPDEST SWAP1 POP SWAP2 SWAP1 POP JUMP JUMPDEST PUSH3 0x189 DUP2 PUSH3 0x16A JUMP JUMPDEST DUP2 EQ PUSH3 0x195 JUMPI PUSH1 0x0 DUP1 REVERT JUMPDEST POP JUMP JUMPDEST PUSH1 0x0 DUP2 MLOAD SWAP1 POP PUSH3 0x1A9 DUP2 PUSH3 0x17E JUMP JUMPDEST SWAP3 SWAP2 POP POP JUMP JUMPDEST PUSH1 0x0 PUSH4 0xFFFFFFFF DUP3 AND SWAP1 POP SWAP2 SWAP1 POP JUMP JUMPDEST PUSH3 0x1CA DUP2 PUSH3 0x1AF JUMP JUMPDEST DUP2 EQ PUSH3 0x1D6 JUMPI PUSH1 0x0 DUP1 REVERT JUMPDEST POP JUMP JUMPDEST PUSH1 0x0 DUP2 MLOAD SWAP1 POP PUSH3 0x1EA DUP2 PUSH3 0x1BF JUMP JUMPDEST SWAP3 SWAP2 POP POP JUMP JUMPDEST PUSH1 0x0 DUP1 PUSH1 0x40 DUP4 DUP6 SUB SLT ISZERO PUSH3 0x20A JUMPI PUSH3 0x209 PUSH3 0x131 JUMP JUMPDEST JUMPDEST PUSH1 0x0 PUSH3 0x21A DUP6 DUP3 DUP7 ADD PUSH3 0x198 JUMP JUMPDEST SWAP3 POP POP PUSH1 0x20 PUSH3 0x22D DUP6 DUP3 DUP7 ADD PUSH3 0x1D9 JUMP JUMPDEST SWAP2 POP POP SWAP3 POP SWAP3 SWAP1 POP JUMP JUMPDEST PUSH1 0x0 DUP2 SWAP1 POP SWAP2 SWAP1 POP JUMP JUMPDEST PUSH32 0x4E487B7100000000000000000000000000000000000000000000000000000000 PUSH1 0x0 MSTORE PUSH1 0x11 PUSH1 0x4 MSTORE PUSH1 0x24 PUSH1 0x0 REVERT JUMPDEST PUSH1 0x0 PUSH3 0x27D DUP3 PUSH3 0x237 JUMP JUMPDEST SWAP2 POP PUSH3 0x28A DUP4 PUSH3 0x237 JUMP JUMPDEST SWAP3 POP DUP2 PUSH32 0xFFFFFFFFFFFFFFFFFFFFFFFFFFFFFFFFFFFFFFFFFFFFFFFFFFFFFFFFFFFFFFFF DIV DUP4 GT DUP3 ISZERO ISZERO AND ISZERO PUSH3 0x2C6 JUMPI PUSH3 0x2C5 PUSH3 0x241 JUMP JUMPDEST JUMPDEST DUP3 DUP3 MUL SWAP1 POP SWAP3 SWAP2 POP POP JUMP JUMPDEST PUSH32 0x4E487B7100000000000000000000000000000000000000000000000000000000 PUSH1 0x0 MSTORE PUSH1 0x12 PUSH1 0x4 MSTORE PUSH1 0x24 PUSH1 0x0 REVERT JUMPDEST PUSH1 0x0 PUSH3 0x30D DUP3 PUSH3 0x237 JUMP JUMPDEST SWAP2 POP PUSH3 0x31A DUP4 PUSH3 0x237 JUMP JUMPDEST SWAP3 POP DUP3 PUSH3 0x32D JUMPI PUSH3 0x32C PUSH3 0x2D1 JUMP JUMPDEST JUMPDEST DUP3 DUP3 DIV SWAP1 POP SWAP3 SWAP2 POP POP JUMP JUMPDEST PUSH2 0xD80 DUP1 PUSH3 0x348 PUSH1 0x0 CODECOPY PUSH1 0x0 RETURN INVALID PUSH1 0x80 PUSH1 0x40 MSTORE PUSH1 0x4 CALLDATASIZE LT PUSH2 0x8A JUMPI PUSH1 0x0 CALLDATALOAD PUSH1 0xE0 SHR DUP1 PUSH4 0x7FF9B596 GT PUSH2 0x59 JUMPI DUP1 PUSH4 0x7FF9B596 EQ PUSH2 0x11B JUMPI DUP1 PUSH4 0x9106D7BA EQ PUSH2 0x146 JUMPI DUP1 PUSH4 0x912C2673 EQ PUSH2 0x171 JUMPI DUP1 PUSH4 0xBBC2402D EQ PUSH2 0x1AE JUMPI DUP1 PUSH4 0xFC0C546A EQ PUSH2 0x1D7 JUMPI PUSH2 0x9A JUMP JUMPDEST DUP1 PUSH4 0x2095F2D4 EQ PUSH2 0x9F JUMPI DUP1 PUSH4 0x5233E632 EQ PUSH2 0xA9 JUMPI DUP1 PUSH4 0x68955FB1 EQ PUSH2 0xC5 JUMPI DUP1 PUSH4 0x7E1C0C09 EQ PUSH2 0xF0 JUMPI PUSH2 0x9A JUMP JUMPDEST CALLDATASIZE PUSH2 0x9A JUMPI PUSH2 0x98 CALLVALUE PUSH2 0x202 JUMP JUMPDEST STOP JUMPDEST PUSH1 0x0 DUP1 REVERT JUMPDEST PUSH2 0xA7 PUSH2 0x3D9 JUMP JUMPDEST STOP JUMPDEST PUSH2 0xC3 PUSH1 0x4 DUP1 CALLDATASIZE SUB DUP2 ADD SWAP1 PUSH2 0xBE SWAP2 SWAP1 PUSH2 0x7CF JUMP JUMPDEST PUSH2 0x202 JUMP JUMPDEST STOP JUMPDEST CALLVALUE DUP1 ISZERO PUSH2 0xD1 JUMPI PUSH1 0x0 DUP1 REVERT JUMPDEST POP PUSH2 0xDA PUSH2 0x4EC JUMP JUMPDEST PUSH1 0x40 MLOAD PUSH2 0xE7 SWAP2 SWAP1 PUSH2 0x818 JUMP JUMPDEST PUSH1 0x40 MLOAD DUP1 SWAP2 SUB SWAP1 RETURN JUMPDEST CALLVALUE DUP1 ISZERO PUSH2 0xFC JUMPI PUSH1 0x0 DUP1 REVERT JUMPDEST POP PUSH2 0x105 PUSH2 0x4FF JUMP JUMPDEST PUSH1 0x40 MLOAD PUSH2 0x112 SWAP2 SWAP1 PUSH2 0x842 JUMP JUMPDEST PUSH1 0x40 MLOAD DUP1 SWAP2 SUB SWAP1 RETURN JUMPDEST CALLVALUE DUP1 ISZERO PUSH2 0x127 JUMPI PUSH1 0x0 DUP1 REVERT JUMPDEST POP PUSH2 0x130 PUSH2 0x505 JUMP JUMPDEST PUSH1 0x40 MLOAD PUSH2 0x13D SWAP2 SWAP1 PUSH2 0x842 JUMP JUMPDEST PUSH1 0x40 MLOAD DUP1 SWAP2 SUB SWAP1 RETURN JUMPDEST CALLVALUE DUP1 ISZERO PUSH2 0x152 JUMPI PUSH1 0x0 DUP1 REVERT JUMPDEST POP PUSH2 0x15B PUSH2 0x50B JUMP JUMPDEST PUSH1 0x40 MLOAD PUSH2 0x168 SWAP2 SWAP1 PUSH2 0x842 JUMP JUMPDEST PUSH1 0x40 MLOAD DUP1 SWAP2 SUB SWAP1 RETURN JUMPDEST CALLVALUE DUP1 ISZERO PUSH2 0x17D JUMPI PUSH1 0x0 DUP1 REVERT JUMPDEST POP PUSH2 0x198 PUSH1 0x4 DUP1 CALLDATASIZE SUB DUP2 ADD SWAP1 PUSH2 0x193 SWAP2 SWAP1 PUSH2 0x8BB JUMP JUMPDEST PUSH2 0x511 JUMP JUMPDEST PUSH1 0x40 MLOAD PUSH2 0x1A5 SWAP2 SWAP1 PUSH2 0x842 JUMP JUMPDEST PUSH1 0x40 MLOAD DUP1 SWAP2 SUB SWAP1 RETURN JUMPDEST CALLVALUE DUP1 ISZERO PUSH2 0x1BA JUMPI PUSH1 0x0 DUP1 REVERT JUMPDEST POP PUSH2 0x1D5 PUSH1 0x4 DUP1 CALLDATASIZE SUB DUP2 ADD SWAP1 PUSH2 0x1D0 SWAP2 SWAP1 PUSH2 0x7CF JUMP JUMPDEST PUSH2 0x5B6 JUMP JUMPDEST STOP JUMPDEST CALLVALUE DUP1 ISZERO PUSH2 0x1E3 JUMPI PUSH1 0x0 DUP1 REVERT JUMPDEST POP PUSH2 0x1EC PUSH2 0x6F1 JUMP JUMPDEST PUSH1 0x40 MLOAD PUSH2 0x1F9 SWAP2 SWAP1 PUSH2 0x947 JUMP JUMPDEST PUSH1 0x40 MLOAD DUP1 SWAP2 SUB SWAP1 RETURN JUMPDEST PUSH1 0x0 PUSH1 0x4 PUSH1 0x0 SWAP1 SLOAD SWAP1 PUSH2 0x100 EXP SWAP1 DIV PUSH1 0xFF AND PUSH1 0xFF AND EQ PUSH2 0x257 JUMPI PUSH1 0x40 MLOAD PUSH32 0x8C379A000000000000000000000000000000000000000000000000000000000 DUP2 MSTORE PUSH1 0x4 ADD PUSH2 0x24E SWAP1 PUSH2 0x9BF JUMP JUMPDEST PUSH1 0x40 MLOAD DUP1 SWAP2 SUB SWAP1 REVERT JUMPDEST PUSH1 0x5 SLOAD DUP2 LT ISZERO PUSH2 0x29C JUMPI PUSH1 0x40 MLOAD PUSH32 0x8C379A000000000000000000000000000000000000000000000000000000000 DUP2 MSTORE PUSH1 0x4 ADD PUSH2 0x293 SWAP1 PUSH2 0xA51 JUMP JUMPDEST PUSH1 0x40 MLOAD DUP1 SWAP2 SUB SWAP1 REVERT JUMPDEST PUSH1 0x3 SLOAD PUSH1 0x5 SLOAD PUSH2 0x2AC SWAP2 SWAP1 PUSH2 0xAA0 JUMP JUMPDEST DUP2 LT ISZERO PUSH2 0x2EE JUMPI PUSH1 0x40 MLOAD PUSH32 0x8C379A000000000000000000000000000000000000000000000000000000000 DUP2 MSTORE PUSH1 0x4 ADD PUSH2 0x2E5 SWAP1 PUSH2 0xA51 JUMP JUMPDEST PUSH1 0x40 MLOAD DUP1 SWAP2 SUB SWAP1 REVERT JUMPDEST PUSH1 0x0 PUSH1 0x2 SLOAD DUP3 PUSH2 0x2FE SWAP2 SWAP1 PUSH2 0xB03 JUMP JUMPDEST SWAP1 POP PUSH1 0x1 PUSH1 0x0 SWAP1 SLOAD SWAP1 PUSH2 0x100 EXP SWAP1 DIV PUSH20 0xFFFFFFFFFFFFFFFFFFFFFFFFFFFFFFFFFFFFFFFF AND PUSH20 0xFFFFFFFFFFFFFFFFFFFFFFFFFFFFFFFFFFFFFFFF AND PUSH4 0xA9059CBB CALLER DUP4 PUSH1 0x40 MLOAD DUP4 PUSH4 0xFFFFFFFF AND PUSH1 0xE0 SHL DUP2 MSTORE PUSH1 0x4 ADD PUSH2 0x35D SWAP3 SWAP2 SWAP1 PUSH2 0xB43 JUMP JUMPDEST PUSH1 0x20 PUSH1 0x40 MLOAD DUP1 DUP4 SUB DUP2 PUSH1 0x0 DUP8 GAS CALL ISZERO DUP1 ISZERO PUSH2 0x37C JUMPI RETURNDATASIZE PUSH1 0x0 DUP1 RETURNDATACOPY RETURNDATASIZE PUSH1 0x0 REVERT JUMPDEST POP POP POP POP PUSH1 0x40 MLOAD RETURNDATASIZE PUSH1 0x1F NOT PUSH1 0x1F DUP3 ADD AND DUP3 ADD DUP1 PUSH1 0x40 MSTORE POP DUP2 ADD SWAP1 PUSH2 0x3A0 SWAP2 SWAP1 PUSH2 0xBA4 JUMP JUMPDEST POP PUSH1 0x3 SLOAD DUP2 PUSH2 0x3AF SWAP2 SWAP1 PUSH2 0xBD1 JUMP JUMPDEST PUSH1 0x3 DUP2 SWAP1 SSTORE POP PUSH11 0x18D0BF423C03D8DE000000 PUSH1 0x3 SLOAD EQ ISZERO PUSH2 0x3D5 JUMPI PUSH2 0x3D4 PUSH1 0x2 PUSH2 0x717 JUMP JUMPDEST JUMPDEST POP POP JUMP JUMPDEST PUSH1 0x0 DUP1 SLOAD SWAP1 PUSH2 0x100 EXP SWAP1 DIV PUSH20 0xFFFFFFFFFFFFFFFFFFFFFFFFFFFFFFFFFFFFFFFF AND PUSH20 0xFFFFFFFFFFFFFFFFFFFFFFFFFFFFFFFFFFFFFFFF AND CALLER PUSH20 0xFFFFFFFFFFFFFFFFFFFFFFFFFFFFFFFFFFFFFFFF AND EQ PUSH2 0x467 JUMPI PUSH1 0x40 MLOAD PUSH32 0x8C379A000000000000000000000000000000000000000000000000000000000 DUP2 MSTORE PUSH1 0x4 ADD PUSH2 0x45E SWAP1 PUSH2 0xC73 JUMP JUMPDEST PUSH1 0x40 MLOAD DUP1 SWAP2 SUB SWAP1 REVERT JUMPDEST PUSH1 0x0 PUSH1 0x4 PUSH1 0x0 PUSH2 0x100 EXP DUP2 SLOAD DUP2 PUSH1 0xFF MUL NOT AND SWAP1 DUP4 PUSH1 0xFF AND MUL OR SWAP1 SSTORE POP PUSH1 0x0 DUP1 SLOAD SWAP1 PUSH2 0x100 EXP SWAP1 DIV PUSH20 0xFFFFFFFFFFFFFFFFFFFFFFFFFFFFFFFFFFFFFFFF AND PUSH20 0xFFFFFFFFFFFFFFFFFFFFFFFFFFFFFFFFFFFFFFFF AND PUSH2 0x8FC CALLVALUE SWAP1 DUP2 ISZERO MUL SWAP1 PUSH1 0x40 MLOAD PUSH1 0x0 PUSH1 0x40 MLOAD DUP1 DUP4 SUB DUP2 DUP6 DUP9 DUP9 CALL SWAP4 POP POP POP POP ISZERO DUP1 ISZERO PUSH2 0x4E9 JUMPI RETURNDATASIZE PUSH1 0x0 DUP1 RETURNDATACOPY RETURNDATASIZE PUSH1 0x0 REVERT JUMPDEST POP JUMP JUMPDEST PUSH1 0x4 PUSH1 0x0 SWAP1 SLOAD SWAP1 PUSH2 0x100 EXP SWAP1 DIV PUSH1 0xFF AND DUP2 JUMP JUMPDEST PUSH1 0x5 SLOAD DUP2 JUMP JUMPDEST PUSH1 0x2 SLOAD DUP2 JUMP JUMPDEST PUSH1 0x3 SLOAD DUP2 JUMP JUMPDEST PUSH1 0x0 PUSH1 0x1 PUSH1 0x0 SWAP1 SLOAD SWAP1 PUSH2 0x100 EXP SWAP1 DIV PUSH20 0xFFFFFFFFFFFFFFFFFFFFFFFFFFFFFFFFFFFFFFFF AND PUSH20 0xFFFFFFFFFFFFFFFFFFFFFFFFFFFFFFFFFFFFFFFF AND PUSH4 0x70A08231 DUP4 PUSH1 0x40 MLOAD DUP3 PUSH4 0xFFFFFFFF AND PUSH1 0xE0 SHL DUP2 MSTORE PUSH1 0x4 ADD PUSH2 0x56E SWAP2 SWAP1 PUSH2 0xC93 JUMP JUMPDEST PUSH1 0x20 PUSH1 0x40 MLOAD DUP1 DUP4 SUB DUP2 DUP7 GAS STATICCALL ISZERO DUP1 ISZERO PUSH2 0x58B JUMPI RETURNDATASIZE PUSH1 0x0 DUP1 RETURNDATACOPY RETURNDATASIZE PUSH1 0x0 REVERT JUMPDEST POP POP POP POP PUSH1 0x40 MLOAD RETURNDATASIZE PUSH1 0x1F NOT PUSH1 0x1F DUP3 ADD AND DUP3 ADD DUP1 PUSH1 0x40 MSTORE POP DUP2 ADD SWAP1 PUSH2 0x5AF SWAP2 SWAP1 PUSH2 0xCC3 JUMP JUMPDEST SWAP1 POP SWAP2 SWAP1 POP JUMP JUMPDEST PUSH1 0x0 DUP1 SLOAD SWAP1 PUSH2 0x100 EXP SWAP1 DIV PUSH20 0xFFFFFFFFFFFFFFFFFFFFFFFFFFFFFFFFFFFFFFFF AND PUSH20 0xFFFFFFFFFFFFFFFFFFFFFFFFFFFFFFFFFFFFFFFF AND CALLER PUSH20 0xFFFFFFFFFFFFFFFFFFFFFFFFFFFFFFFFFFFFFFFF AND EQ PUSH2 0x644 JUMPI PUSH1 0x40 MLOAD PUSH32 0x8C379A000000000000000000000000000000000000000000000000000000000 DUP2 MSTORE PUSH1 0x4 ADD PUSH2 0x63B SWAP1 PUSH2 0xC73 JUMP JUMPDEST PUSH1 0x40 MLOAD DUP1 SWAP2 SUB SWAP1 REVERT JUMPDEST DUP1 PUSH1 0x5 DUP2 SWAP1 SSTORE POP PUSH1 0x1 PUSH1 0x0 SWAP1 SLOAD SWAP1 PUSH2 0x100 EXP SWAP1 DIV PUSH20 0xFFFFFFFFFFFFFFFFFFFFFFFFFFFFFFFFFFFFFFFF AND PUSH20 0xFFFFFFFFFFFFFFFFFFFFFFFFFFFFFFFFFFFFFFFF AND PUSH4 0xA9059CBB ADDRESS PUSH1 0x5 SLOAD PUSH1 0x40 MLOAD DUP4 PUSH4 0xFFFFFFFF AND PUSH1 0xE0 SHL DUP2 MSTORE PUSH1 0x4 ADD PUSH2 0x6AA SWAP3 SWAP2 SWAP1 PUSH2 0xB43 JUMP JUMPDEST PUSH1 0x20 PUSH1 0x40 MLOAD DUP1 DUP4 SUB DUP2 PUSH1 0x0 DUP8 GAS CALL ISZERO DUP1 ISZERO PUSH2 0x6C9 JUMPI RETURNDATASIZE PUSH1 0x0 DUP1 RETURNDATACOPY RETURNDATASIZE PUSH1 0x0 REVERT JUMPDEST POP POP POP POP PUSH1 0x40 MLOAD RETURNDATASIZE PUSH1 0x1F NOT PUSH1 0x1F DUP3 ADD AND DUP3 ADD DUP1 PUSH1 0x40 MSTORE POP DUP2 ADD SWAP1 PUSH2 0x6ED SWAP2 SWAP1 PUSH2 0xBA4 JUMP JUMPDEST POP POP JUMP JUMPDEST PUSH1 0x1 PUSH1 0x0 SWAP1 SLOAD SWAP1 PUSH2 0x100 EXP SWAP1 DIV PUSH20 0xFFFFFFFFFFFFFFFFFFFFFFFFFFFFFFFFFFFFFFFF AND DUP2 JUMP JUMPDEST DUP1 PUSH1 0x4 PUSH1 0x0 PUSH2 0x100 EXP DUP2 SLOAD DUP2 PUSH1 0xFF MUL NOT AND SWAP1 DUP4 PUSH1 0xFF AND MUL OR SWAP1 SSTORE POP PUSH1 0x1 PUSH1 0x4 PUSH1 0x0 SWAP1 SLOAD SWAP1 PUSH2 0x100 EXP SWAP1 DIV PUSH1 0xFF AND PUSH1 0xFF AND GT ISZERO PUSH2 0x75B JUMPI PUSH2 0x75A PUSH2 0x9EA PUSH1 0xE1 PUSH2 0x75E JUMP JUMPDEST JUMPDEST POP JUMP JUMPDEST PUSH2 0x2710 DUP3 DUP3 PUSH8 0xDE0B6B3A7640000 PUSH2 0x776 SWAP2 SWAP1 PUSH2 0xCF0 JUMP JUMPDEST PUSH2 0x780 SWAP2 SWAP1 PUSH2 0xB03 JUMP JUMPDEST PUSH2 0x78A SWAP2 SWAP1 PUSH2 0xB03 JUMP JUMPDEST PUSH1 0x2 DUP2 SWAP1 SSTORE POP POP POP JUMP JUMPDEST PUSH1 0x0 DUP1 REVERT JUMPDEST PUSH1 0x0 DUP2 SWAP1 POP SWAP2 SWAP1 POP JUMP JUMPDEST PUSH2 0x7AC DUP2 PUSH2 0x799 JUMP JUMPDEST DUP2 EQ PUSH2 0x7B7 JUMPI PUSH1 0x0 DUP1 REVERT JUMPDEST POP JUMP JUMPDEST PUSH1 0x0 DUP2 CALLDATALOAD SWAP1 POP PUSH2 0x7C9 DUP2 PUSH2 0x7A3 JUMP JUMPDEST SWAP3 SWAP2 POP POP JUMP JUMPDEST PUSH1 0x0 PUSH1 0x20 DUP3 DUP5 SUB SLT ISZERO PUSH2 0x7E5 JUMPI PUSH2 0x7E4 PUSH2 0x794 JUMP JUMPDEST JUMPDEST PUSH1 0x0 PUSH2 0x7F3 DUP5 DUP3 DUP6 ADD PUSH2 0x7BA JUMP JUMPDEST SWAP2 POP POP SWAP3 SWAP2 POP POP JUMP JUMPDEST PUSH1 0x0 PUSH1 0xFF DUP3 AND SWAP1 POP SWAP2 SWAP1 POP JUMP JUMPDEST PUSH2 0x812 DUP2 PUSH2 0x7FC JUMP JUMPDEST DUP3 MSTORE POP POP JUMP JUMPDEST PUSH1 0x0 PUSH1 0x20 DUP3 ADD SWAP1 POP PUSH2 0x82D PUSH1 0x0 DUP4 ADD DUP5 PUSH2 0x809 JUMP JUMPDEST SWAP3 SWAP2 POP POP JUMP JUMPDEST PUSH2 0x83C DUP2 PUSH2 0x799 JUMP JUMPDEST DUP3 MSTORE POP POP JUMP JUMPDEST PUSH1 0x0 PUSH1 0x20 DUP3 ADD SWAP1 POP PUSH2 0x857 PUSH1 0x0 DUP4 ADD DUP5 PUSH2 0x833 JUMP JUMPDEST SWAP3 SWAP2 POP POP JUMP JUMPDEST PUSH1 0x0 PUSH20 0xFFFFFFFFFFFFFFFFFFFFFFFFFFFFFFFFFFFFFFFF DUP3 AND SWAP1 POP SWAP2 SWAP1 POP JUMP JUMPDEST PUSH1 0x0 PUSH2 0x888 DUP3 PUSH2 0x85D JUMP JUMPDEST SWAP1 POP SWAP2 SWAP1 POP JUMP JUMPDEST PUSH2 0x898 DUP2 PUSH2 0x87D JUMP JUMPDEST DUP2 EQ PUSH2 0x8A3 JUMPI PUSH1 0x0 DUP1 REVERT JUMPDEST POP JUMP JUMPDEST PUSH1 0x0 DUP2 CALLDATALOAD SWAP1 POP PUSH2 0x8B5 DUP2 PUSH2 0x88F JUMP JUMPDEST SWAP3 SWAP2 POP POP JUMP JUMPDEST PUSH1 0x0 PUSH1 0x20 DUP3 DUP5 SUB SLT ISZERO PUSH2 0x8D1 JUMPI PUSH2 0x8D0 PUSH2 0x794 JUMP JUMPDEST JUMPDEST PUSH1 0x0 PUSH2 0x8DF DUP5 DUP3 DUP6 ADD PUSH2 0x8A6 JUMP JUMPDEST SWAP2 POP POP SWAP3 SWAP2 POP POP JUMP JUMPDEST PUSH1 0x0 DUP2 SWAP1 POP SWAP2 SWAP1 POP JUMP JUMPDEST PUSH1 0x0 PUSH2 0x90D PUSH2 0x908 PUSH2 0x903 DUP5 PUSH2 0x85D JUMP JUMPDEST PUSH2 0x8E8 JUMP JUMPDEST PUSH2 0x85D JUMP JUMPDEST SWAP1 POP SWAP2 SWAP1 POP JUMP JUMPDEST PUSH1 0x0 PUSH2 0x91F DUP3 PUSH2 0x8F2 JUMP JUMPDEST SWAP1 POP SWAP2 SWAP1 POP JUMP JUMPDEST PUSH1 0x0 PUSH2 0x931 DUP3 PUSH2 0x914 JUMP JUMPDEST SWAP1 POP SWAP2 SWAP1 POP JUMP JUMPDEST PUSH2 0x941 DUP2 PUSH2 0x926 JUMP JUMPDEST DUP3 MSTORE POP POP JUMP JUMPDEST PUSH1 0x0 PUSH1 0x20 DUP3 ADD SWAP1 POP PUSH2 0x95C PUSH1 0x0 DUP4 ADD DUP5 PUSH2 0x938 JUMP JUMPDEST SWAP3 SWAP2 POP POP JUMP JUMPDEST PUSH1 0x0 DUP3 DUP3 MSTORE PUSH1 0x20 DUP3 ADD SWAP1 POP SWAP3 SWAP2 POP POP JUMP JUMPDEST PUSH32 0x49434F20456E6465640000000000000000000000000000000000000000000000 PUSH1 0x0 DUP3 ADD MSTORE POP JUMP JUMPDEST PUSH1 0x0 PUSH2 0x9A9 PUSH1 0x9 DUP4 PUSH2 0x962 JUMP JUMPDEST SWAP2 POP PUSH2 0x9B4 DUP3 PUSH2 0x973 JUMP JUMPDEST PUSH1 0x20 DUP3 ADD SWAP1 POP SWAP2 SWAP1 POP JUMP JUMPDEST PUSH1 0x0 PUSH1 0x20 DUP3 ADD SWAP1 POP DUP2 DUP2 SUB PUSH1 0x0 DUP4 ADD MSTORE PUSH2 0x9D8 DUP2 PUSH2 0x99C JUMP JUMPDEST SWAP1 POP SWAP2 SWAP1 POP JUMP JUMPDEST PUSH32 0x54686973206D75636820616D6F756E74206973206E6F7420617661696C61626C PUSH1 0x0 DUP3 ADD MSTORE PUSH32 0x6500000000000000000000000000000000000000000000000000000000000000 PUSH1 0x20 DUP3 ADD MSTORE POP JUMP JUMPDEST PUSH1 0x0 PUSH2 0xA3B PUSH1 0x21 DUP4 PUSH2 0x962 JUMP JUMPDEST SWAP2 POP PUSH2 0xA46 DUP3 PUSH2 0x9DF JUMP JUMPDEST PUSH1 0x40 DUP3 ADD SWAP1 POP SWAP2 SWAP1 POP JUMP JUMPDEST PUSH1 0x0 PUSH1 0x20 DUP3 ADD SWAP1 POP DUP2 DUP2 SUB PUSH1 0x0 DUP4 ADD MSTORE PUSH2 0xA6A DUP2 PUSH2 0xA2E JUMP JUMPDEST SWAP1 POP SWAP2 SWAP1 POP JUMP JUMPDEST PUSH32 0x4E487B7100000000000000000000000000000000000000000000000000000000 PUSH1 0x0 MSTORE PUSH1 0x11 PUSH1 0x4 MSTORE PUSH1 0x24 PUSH1 0x0 REVERT JUMPDEST PUSH1 0x0 PUSH2 0xAAB DUP3 PUSH2 0x799 JUMP JUMPDEST SWAP2 POP PUSH2 0xAB6 DUP4 PUSH2 0x799 JUMP JUMPDEST SWAP3 POP DUP3 DUP3 LT ISZERO PUSH2 0xAC9 JUMPI PUSH2 0xAC8 PUSH2 0xA71 JUMP JUMPDEST JUMPDEST DUP3 DUP3 SUB SWAP1 POP SWAP3 SWAP2 POP POP JUMP JUMPDEST PUSH32 0x4E487B7100000000000000000000000000000000000000000000000000000000 PUSH1 0x0 MSTORE PUSH1 0x12 PUSH1 0x4 MSTORE PUSH1 0x24 PUSH1 0x0 REVERT JUMPDEST PUSH1 0x0 PUSH2 0xB0E DUP3 PUSH2 0x799 JUMP JUMPDEST SWAP2 POP PUSH2 0xB19 DUP4 PUSH2 0x799 JUMP JUMPDEST SWAP3 POP DUP3 PUSH2 0xB29 JUMPI PUSH2 0xB28 PUSH2 0xAD4 JUMP JUMPDEST JUMPDEST DUP3 DUP3 DIV SWAP1 POP SWAP3 SWAP2 POP POP JUMP JUMPDEST PUSH2 0xB3D DUP2 PUSH2 0x87D JUMP JUMPDEST DUP3 MSTORE POP POP JUMP JUMPDEST PUSH1 0x0 PUSH1 0x40 DUP3 ADD SWAP1 POP PUSH2 0xB58 PUSH1 0x0 DUP4 ADD DUP6 PUSH2 0xB34 JUMP JUMPDEST PUSH2 0xB65 PUSH1 0x20 DUP4 ADD DUP5 PUSH2 0x833 JUMP JUMPDEST SWAP4 SWAP3 POP POP POP JUMP JUMPDEST PUSH1 0x0 DUP2 ISZERO ISZERO SWAP1 POP SWAP2 SWAP1 POP JUMP JUMPDEST PUSH2 0xB81 DUP2 PUSH2 0xB6C JUMP JUMPDEST DUP2 EQ PUSH2 0xB8C JUMPI PUSH1 0x0 DUP1 REVERT JUMPDEST POP JUMP JUMPDEST PUSH1 0x0 DUP2 MLOAD SWAP1 POP PUSH2 0xB9E DUP2 PUSH2 0xB78 JUMP JUMPDEST SWAP3 SWAP2 POP POP JUMP JUMPDEST PUSH1 0x0 PUSH1 0x20 DUP3 DUP5 SUB SLT ISZERO PUSH2 0xBBA JUMPI PUSH2 0xBB9 PUSH2 0x794 JUMP JUMPDEST JUMPDEST PUSH1 0x0 PUSH2 0xBC8 DUP5 DUP3 DUP6 ADD PUSH2 0xB8F JUMP JUMPDEST SWAP2 POP POP SWAP3 SWAP2 POP POP JUMP JUMPDEST PUSH1 0x0 PUSH2 0xBDC DUP3 PUSH2 0x799 JUMP JUMPDEST SWAP2 POP PUSH2 0xBE7 DUP4 PUSH2 0x799 JUMP JUMPDEST SWAP3 POP DUP3 PUSH32 0xFFFFFFFFFFFFFFFFFFFFFFFFFFFFFFFFFFFFFFFFFFFFFFFFFFFFFFFFFFFFFFFF SUB DUP3 GT ISZERO PUSH2 0xC1C JUMPI PUSH2 0xC1B PUSH2 0xA71 JUMP JUMPDEST JUMPDEST DUP3 DUP3 ADD SWAP1 POP SWAP3 SWAP2 POP POP JUMP JUMPDEST PUSH32 0x4F6E6C792061646D696E2063616E20646F207468697300000000000000000000 PUSH1 0x0 DUP3 ADD MSTORE POP JUMP JUMPDEST PUSH1 0x0 PUSH2 0xC5D PUSH1 0x16 DUP4 PUSH2 0x962 JUMP JUMPDEST SWAP2 POP PUSH2 0xC68 DUP3 PUSH2 0xC27 JUMP JUMPDEST PUSH1 0x20 DUP3 ADD SWAP1 POP SWAP2 SWAP1 POP JUMP JUMPDEST PUSH1 0x0 PUSH1 0x20 DUP3 ADD SWAP1 POP DUP2 DUP2 SUB PUSH1 0x0 DUP4 ADD MSTORE PUSH2 0xC8C DUP2 PUSH2 0xC50 JUMP JUMPDEST SWAP1 POP SWAP2 SWAP1 POP JUMP JUMPDEST PUSH1 0x0 PUSH1 0x20 DUP3 ADD SWAP1 POP PUSH2 0xCA8 PUSH1 0x0 DUP4 ADD DUP5 PUSH2 0xB34 JUMP JUMPDEST SWAP3 SWAP2 POP POP JUMP JUMPDEST PUSH1 0x0 DUP2 MLOAD SWAP1 POP PUSH2 0xCBD DUP2 PUSH2 0x7A3 JUMP JUMPDEST SWAP3 SWAP2 POP POP JUMP JUMPDEST PUSH1 0x0 PUSH1 0x20 DUP3 DUP5 SUB SLT ISZERO PUSH2 0xCD9 JUMPI PUSH2 0xCD8 PUSH2 0x794 JUMP JUMPDEST JUMPDEST PUSH1 0x0 PUSH2 0xCE7 DUP5 DUP3 DUP6 ADD PUSH2 0xCAE JUMP JUMPDEST SWAP2 POP POP SWAP3 SWAP2 POP POP JUMP JUMPDEST PUSH1 0x0 PUSH2 0xCFB DUP3 PUSH2 0x799 JUMP JUMPDEST SWAP2 POP PUSH2 0xD06 DUP4 PUSH2 0x799 JUMP JUMPDEST SWAP3 POP DUP2 PUSH32 0xFFFFFFFFFFFFFFFFFFFFFFFFFFFFFFFFFFFFFFFFFFFFFFFFFFFFFFFFFFFFFFFF DIV DUP4 GT DUP3 ISZERO ISZERO AND ISZERO PUSH2 0xD3F JUMPI PUSH2 0xD3E PUSH2 0xA71 JUMP JUMPDEST JUMPDEST DUP3 DUP3 MUL SWAP1 POP SWAP3 SWAP2 POP POP JUMP INVALID LOG2 PUSH5 0x6970667358 0x22 SLT KECCAK256 RETURN PUSH28 0x73A281A2142C4FB69ED0F9965B7A395361A5BCEBDAD83AFFDA7E4EF9 0xE 0xC5 PUSH5 0x736F6C6343 STOP ADDMOD 0xC STOP CALLER "
		},
		"gasEstimates": {
			"creation": {
				"codeDepositCost": "691200",
				"executionCost": "infinite",
				"totalCost": "infinite"
			},
			"external": {
				"buyFreshToken(uint256)": "infinite",
				"endCrowdsale()": "infinite",
				"icoPhase()": "2516",
				"startCrowdsale(uint256)": "infinite",
				"token()": "infinite",
				"tokenPrice()": "2429",
				"totalOf(address)": "infinite",
				"totalSold()": "2451",
				"totalTokens()": "2496"
			},
			"internal": {
				"_setIcoPhase(uint8)": "infinite",
				"_setTokenPrice(uint256,uint256)": "infinite"
			}
		},
		"methodIdentifiers": {
			"buyFreshToken(uint256)": "5233e632",
			"endCrowdsale()": "2095f2d4",
			"icoPhase()": "68955fb1",
			"startCrowdsale(uint256)": "bbc2402d",
			"token()": "fc0c546a",
			"tokenPrice()": "7ff9b596",
			"totalOf(address)": "912c2673",
			"totalSold()": "9106d7ba",
			"totalTokens()": "7e1c0c09"
		}
	},
	"abi": [
		{
			"inputs": [
				{
					"internalType": "contract FreshToken",
					"name": "_tokenAddress",
					"type": "address"
				},
				{
					"internalType": "uint32",
					"name": "_currentEthrate",
					"type": "uint32"
				}
			],
			"stateMutability": "nonpayable",
			"type": "constructor"
		},
		{
			"inputs": [
				{
					"internalType": "uint256",
					"name": "_amount",
					"type": "uint256"
				}
			],
			"name": "buyFreshToken",
			"outputs": [],
			"stateMutability": "payable",
			"type": "function"
		},
		{
			"inputs": [],
			"name": "endCrowdsale",
			"outputs": [],
			"stateMutability": "payable",
			"type": "function"
		},
		{
			"inputs": [],
			"name": "icoPhase",
			"outputs": [
				{
					"internalType": "uint8",
					"name": "",
					"type": "uint8"
				}
			],
			"stateMutability": "view",
			"type": "function"
		},
		{
			"inputs": [
				{
					"internalType": "uint256",
					"name": "_tokens",
					"type": "uint256"
				}
			],
			"name": "startCrowdsale",
			"outputs": [],
			"stateMutability": "nonpayable",
			"type": "function"
		},
		{
			"inputs": [],
			"name": "token",
			"outputs": [
				{
					"internalType": "contract FreshToken",
					"name": "",
					"type": "address"
				}
			],
			"stateMutability": "view",
			"type": "function"
		},
		{
			"inputs": [],
			"name": "tokenPrice",
			"outputs": [
				{
					"internalType": "uint256",
					"name": "",
					"type": "uint256"
				}
			],
			"stateMutability": "view",
			"type": "function"
		},
		{
			"inputs": [
				{
					"internalType": "address",
					"name": "_address",
					"type": "address"
				}
			],
			"name": "totalOf",
			"outputs": [
				{
					"internalType": "uint256",
					"name": "",
					"type": "uint256"
				}
			],
			"stateMutability": "view",
			"type": "function"
		},
		{
			"inputs": [],
			"name": "totalSold",
			"outputs": [
				{
					"internalType": "uint256",
					"name": "",
					"type": "uint256"
				}
			],
			"stateMutability": "view",
			"type": "function"
		},
		{
			"inputs": [],
			"name": "totalTokens",
			"outputs": [
				{
					"internalType": "uint256",
					"name": "",
					"type": "uint256"
				}
			],
			"stateMutability": "view",
			"type": "function"
		},
		{
			"stateMutability": "payable",
			"type": "receive"
		}
	]
}